{
  "contractName": "CharityDonation",
  "abi": [
    {
      "inputs": [],
      "stateMutability": "nonpayable",
      "type": "constructor"
    },
    {
      "anonymous": false,
      "inputs": [
        {
          "indexed": true,
          "internalType": "address",
          "name": "donor",
          "type": "address"
        },
        {
          "indexed": false,
          "internalType": "uint256",
          "name": "amount",
          "type": "uint256"
        }
      ],
      "name": "DonationReceived",
      "type": "event"
    },
    {
      "inputs": [
        {
          "internalType": "address",
          "name": "",
          "type": "address"
        }
      ],
      "name": "donations",
      "outputs": [
        {
          "internalType": "uint256",
          "name": "",
          "type": "uint256"
        }
      ],
      "stateMutability": "view",
      "type": "function",
      "constant": true
    },
    {
      "inputs": [],
      "name": "owner",
      "outputs": [
        {
          "internalType": "address",
          "name": "",
          "type": "address"
        }
      ],
      "stateMutability": "view",
      "type": "function",
      "constant": true
    },
    {
      "inputs": [],
      "name": "donate",
      "outputs": [],
      "stateMutability": "payable",
      "type": "function",
      "payable": true
    },
    {
      "inputs": [
        {
          "internalType": "address",
          "name": "_donor",
          "type": "address"
        }
      ],
      "name": "getDonation",
      "outputs": [
        {
          "internalType": "uint256",
          "name": "",
          "type": "uint256"
        }
      ],
      "stateMutability": "view",
      "type": "function",
      "constant": true
    },
    {
      "inputs": [
        {
          "internalType": "uint256",
          "name": "_amount",
          "type": "uint256"
        }
      ],
      "name": "withdraw",
      "outputs": [],
      "stateMutability": "nonpayable",
      "type": "function"
    },
    {
      "inputs": [],
      "name": "contractBalance",
      "outputs": [
        {
          "internalType": "uint256",
          "name": "",
          "type": "uint256"
        }
      ],
      "stateMutability": "view",
      "type": "function",
      "constant": true
    }
  ],
  "bytecode": "0x608060405234801561000f575f80fd5b50335f806101000a81548173ffffffffffffffffffffffffffffffffffffffff021916908373ffffffffffffffffffffffffffffffffffffffff16021790555061070b8061005c5f395ff3fe608060405260043610610054575f3560e01c80632e1a7d4d14610058578063410a1d32146100805780638b7afe2e146100bc5780638da5cb5b146100e6578063cc6cb19a14610110578063ed88c68e1461014c575b5f80fd5b348015610063575f80fd5b5061007e6004803603810190610079919061042d565b610156565b005b34801561008b575f80fd5b506100a660048036038101906100a191906104b2565b61028c565b6040516100b391906104ec565b60405180910390f35b3480156100c7575f80fd5b506100d06102d2565b6040516100dd91906104ec565b60405180910390f35b3480156100f1575f80fd5b506100fa6102d9565b6040516101079190610514565b60405180910390f35b34801561011b575f80fd5b50610136600480360381019061013191906104b2565b6102fc565b60405161014391906104ec565b60405180910390f35b610154610311565b005b5f8054906101000a900473ffffffffffffffffffffffffffffffffffffffff1673ffffffffffffffffffffffffffffffffffffffff163373ffffffffffffffffffffffffffffffffffffffff16146101e3576040517f08c379a00000000000000000000000000000000000000000000000000000000081526004016101da90610587565b60405180910390fd5b80471015610226576040517f08c379a000000000000000000000000000000000000000000000000000000000815260040161021d906105ef565b60405180910390fd5b5f8054906101000a900473ffffffffffffffffffffffffffffffffffffffff1673ffffffffffffffffffffffffffffffffffffffff166108fc8290811502906040515f60405180830381858888f19350505050158015610288573d5f803e3d5ffd5b5050565b5f60015f8373ffffffffffffffffffffffffffffffffffffffff1673ffffffffffffffffffffffffffffffffffffffff1681526020019081526020015f20549050919050565b5f47905090565b5f8054906101000a900473ffffffffffffffffffffffffffffffffffffffff1681565b6001602052805f5260405f205f915090505481565b5f3411610353576040517f08c379a000000000000000000000000000000000000000000000000000000000815260040161034a90610657565b60405180910390fd5b3460015f3373ffffffffffffffffffffffffffffffffffffffff1673ffffffffffffffffffffffffffffffffffffffff1681526020019081526020015f205f82825461039f91906106a2565b925050819055503373ffffffffffffffffffffffffffffffffffffffff167f264f630d9efa0d07053a31163641d9fcc0adafc9d9e76f1c37c2ce3a558d2c52346040516103ec91906104ec565b60405180910390a2565b5f80fd5b5f819050919050565b61040c816103fa565b8114610416575f80fd5b50565b5f8135905061042781610403565b92915050565b5f60208284031215610442576104416103f6565b5b5f61044f84828501610419565b91505092915050565b5f73ffffffffffffffffffffffffffffffffffffffff82169050919050565b5f61048182610458565b9050919050565b61049181610477565b811461049b575f80fd5b50565b5f813590506104ac81610488565b92915050565b5f602082840312156104c7576104c66103f6565b5b5f6104d48482850161049e565b91505092915050565b6104e6816103fa565b82525050565b5f6020820190506104ff5f8301846104dd565b92915050565b61050e81610477565b82525050565b5f6020820190506105275f830184610505565b92915050565b5f82825260208201905092915050565b7f4f6e6c7920746865206f776e65722063616e20776974686472617700000000005f82015250565b5f610571601b8361052d565b915061057c8261053d565b602082019050919050565b5f6020820190508181035f83015261059e81610565565b9050919050565b7f496e73756666696369656e742062616c616e63650000000000000000000000005f82015250565b5f6105d960148361052d565b91506105e4826105a5565b602082019050919050565b5f6020820190508181035f830152610606816105cd565b9050919050565b7f446f6e6174696f6e206d7573742062652067726561746572207468616e2030005f82015250565b5f610641601f8361052d565b915061064c8261060d565b602082019050919050565b5f6020820190508181035f83015261066e81610635565b9050919050565b7f4e487b71000000000000000000000000000000000000000000000000000000005f52601160045260245ffd5b5f6106ac826103fa565b91506106b7836103fa565b92508282019050808211156106cf576106ce610675565b5b9291505056fea2646970667358221220ac35063da361c336b6d4d025d4f64cdb426bb210e157d996a35afffc7782e4be64736f6c63430008150033",
  "immutableReferences": {},
  "source": "// SPDX-License-Identifier: MIT\r\npragma solidity ^0.8.21;\r\n\r\ncontract CharityDonation {\r\n    address public owner;\r\n    mapping(address => uint256) public donations;\r\n    event DonationReceived(address indexed donor, uint256 amount);\r\n    constructor() {\r\n        owner = msg.sender;\r\n    }\r\n    function donate() public payable {\r\n        require(msg.value > 0, \"Donation must be greater than 0\");\r\n        donations[msg.sender] += msg.value;\r\n        emit DonationReceived(msg.sender, msg.value);\r\n    }\r\n    function getDonation(address _donor) public view returns (uint256) {\r\n        return donations[_donor];\r\n    }\r\n    function withdraw(uint256 _amount) public {\r\n        require(msg.sender == owner, \"Only the owner can withdraw\");\r\n        require(address(this).balance >= _amount, \"Insufficient balance\");\r\n        payable(owner).transfer(_amount);\r\n    }\r\n    function contractBalance() public view returns (uint256) {\r\n        return address(this).balance;\r\n    }\r\n}\r\n",
  "sourcePath": "E:\\Workspace\\blockchain\\charity\\contracts\\CharityDonation.sol",
  "compiler": {
    "name": "solc",
    "version": "0.8.21+commit.d9974bed.Emscripten.clang"
  },
  "schemaVersion": "3.4.16",
  "updatedAt": "2024-06-17T19:00:13.970Z",
  "networkType": "ethereum",
  "devdoc": {
    "kind": "dev",
    "methods": {},
    "version": 1
  },
  "userdoc": {
    "kind": "user",
    "methods": {},
    "version": 1
  }
}